:100000000C9437000C94C1000C94C1000C94C100F6
:100010000C94C1000C94C1000C94C1000C94C1005C
:100020000C94C1000C94C1000C94C1000C94C1004C
:100030000C94C1000C94C1000C94C1000C94C1003C
:100040000C94C1000C94C1000C94C1000C94C1002C
:100050000C94C1000C94C1000C94C1000C94C1001C
:100060000C94C1000C94C100010001048000112413
:100070001FBECFEFD8E0DEBFCDBFE8E6F0E040E046
:1000800017C0B591A59135912591059107FD0CC03B
:1000900095918591EF01F92FE82F05900D92A21708
:1000A000B307D9F7FE0104C01D92A217B307E1F709
:1000B000ED36F40731F70E9461000C945F00F8946C
:0200C000FFCF70
:1000C2000E94B3000E94BA000E947F000E94950025
:1000D2000E949F000E94A9000E948A000E94720052
:0200E200EFCF5E
:1000E4008091000190910101880F991F880F991F39
:0A00F400909301018093000108952C
:1000FE008091020190910301807F992790930301D3
:06010E0080930201089538
:100114008091020190910301969587959093030134
:0601240080930201089522
:10012A008091020190910301896090930301809369
:04013A000201089521
:10013E0080910201909103010196909303018093A7
:04014E00020108950D
:100152008091000190910101019790930101809398
:0401620000010895FB
:0E01660084E590E090930301809302010895D8
:0E0174008BE490E090930101809300010895C8
:040182000C940000D9
:00000001FF
