:100000000C9434000C9443000C9443000C94430073
:100010000C9443000C9443000C9443000C94430054
:100020000C9443000C9443000C9443000C94430044
:100030000C9443000C9443000C9443000C94430034
:100040000C9443000C9443000C9443000C94430024
:100050000C9443000C9443000C9443000C94430014
:100060000C9443000C94430011241FBECFEFD8E042
:10007000DEBFCDBF0E9440000C943E00F894FFCF3D
:0600800080E090E008950D
:040086000C940000D6
:00000001FF
